:040000000000009369
:040004000030013790
:040008000000019360
:04000C0000000213DB
:040010000000029357
:0400140000000313D2
:04001800000003934E
:04001C0000000413C9
:040020000000049345
:0400240000000513C0
:04002800000005933C
:04002C0000000613B7
:040030000000069333
:0400340000000713AE
:04003800000007932A
:04003C0000000813A5
:040040000000089321
:04004400000009139C
:040048000000099318
:04004C0000000A1393
:0400500000000A930F
:0400540000000B138A
:0400580000000B9306
:04005C0000000C1381
:0400600000000C93FD
:0400640000000D1378
:0400680000000D93F4
:04006C0000000E136F
:0400700000000E93EB
:0400740000000F1366
:0400780000000F93E2
:04007C00008000EF11
:040080000000006F0D
:0400840081010113E2
:040088007E8126232C
:04008C007F010413D9
:04009000FFFF7337C4
:04009400B603031399
:0400980000610133CF
:04009C00300007B772
:0400A0000110071331
:0400A40000E7A023AE
:0400A800FE04262309
:0400AC00FFFF67B734
:0400B000FF0407132F
:0400B40000F707B397
:0400B80000004737C6
:0400BC0021872F83E6
:0400C00021870693FB
:0400C4000046AF0340
:0400C80021870693F3
:0400CC000086AE8379
:0400D00021870693EB
:0400D40000C6AE03B1
:0400D80021870693E3
:0400DC000106A30373
:0400E00021870693DB
:0400E4000146A883A6
:0400E80021870693D3
:0400EC000186A803DE
:0400F00021870693CB
:0400F40001C6A50399
:0400F80021870693C3
:0400FC000206A583D0
:0401000021870693BA
:040104000246A60306
:0401080021870693B2
:04010C000286A6833E
:0401100039F7A423F4
:0401140039E7A623FE
:0401180039D7A82308
:04011C0039C7AA2312
:040120003867AC236D
:040124003917AE23B6
:040128003B07A023CE
:04012C003AA7A22329
:040130003AB7A42313
:040134003AC7A623FD
:040138003AD7A823E7
:04013C0021870713FD
:0401400002C7568319
:040144003AD79A23E9
:0401480002E7470380
:04014C003AE78B23E0
:04015000FE04262360
:040154000300006F35
:04015800FFFF67B787
:04015C00FF04071382
:0401600000F707336A
:04016400FEC427832B
:040168000027979342
:04016C0000F707B3DE
:04017000FEC427039F
:040174003AE7AC2397
:04017800FEC4278317
:04017C00001787934E
:04018000FEF4262340
:04018400FEC427038B
:04018800000027B795
:04018C0070F78793EE
:04019000FCE7D4E3D1
:04019400FFFF67B74B
:04019800388787938A
:04019C00FF04071342
:0401A00000F707B3AA
:0401A400FEF424231E
:0401A8000000001340
:0401AC00FE84278323
:0401B000001787139A
:0401B400FEE424231E
:0401B8000200073703
:0401BC000007C783EE
:0401C00000F7002321
:0401C400FE0794E3BB
:0401C800FE042623E8
:0401CC000380006F3D
:0401D000FFFF67B70F
:0401D400FF0407130A
:0401D80000F70733F2
:0401DC00FEC42783B3
:0401E00000279793CA
:0401E40000F707B366
:0401E8003B87A703A7
:0401EC00020007B74F
:0401F0000FF777137B
:0401F40000E780237D
:0401F800FEC4278397
:0401FC0000178793CE
:04020000FEF42623BF
:04020400FEC427030A
:04020800000027B714
:04020C0070F787936D
:04021000FCE7D0E354
:040214000000006F77
:04021800746F6F424E
:04021C002E676E6972
:040220002E2E2E2E22
:040224006554202ECF
:040228006E69747314
:04022C006F66206772
:040230006172207265
:040234007962206D5E
:0402380069685A2077
:04023C00676E657014
:040240002E6E614677
:0402440000000D0A9F
:00000001FF
